{
  "transactions": [
    {
      "hash": "0x3843fbce9f5933bcdc50081bc393ade3e5ee72c3f897d0a66d8f8368aebf622e",
      "transactionType": "CALL",
      "contractName": null,
      "contractAddress": "0x1cfa3a209a85bc7e5731bf160e8e1826a6f7727f",
      "function": "createPool(uint256,string,uint256)",
      "arguments": [
        "1",
        "Will the VAR check rule Messi\\'s 42nd minute goal OFFSIDE?",
        "7776000"
      ],
      "transaction": {
        "from": "0xd759c0017a1f7fbdaee62a1b943b1ec90a02d0fe",
        "to": "0x1cfa3a209a85bc7e5731bf160e8e1826a6f7727f",
        "gas": "0x3b394",
        "value": "0x0",
        "input": "0x28797c5a00000000000000000000000000000000000000000000000000000000000000010000000000000000000000000000000000000000000000000000000000000060000000000000000000000000000000000000000000000000000000000076a700000000000000000000000000000000000000000000000000000000000000003957696c6c207468652056415220636865636b2072756c65204d6573736927732034326e64206d696e75746520676f616c204f4646534944453f00000000000000",
        "nonce": "0xc",
        "chainId": "0x7a0"
      },
      "additionalContracts": [],
      "isFixedGasLimit": false
    },
    {
      "hash": "0xbe39bcd7fb18718f15231da3f6155d3b3079997c2110389467e1f58805389df2",
      "transactionType": "CALL",
      "contractName": null,
      "contractAddress": "0x1cfa3a209a85bc7e5731bf160e8e1826a6f7727f",
      "function": "createPool(uint256,string,uint256)",
      "arguments": [
        "2",
        "Was the ball completely out of bounds before Mbappe\\'s assist?",
        "7776000"
      ],
      "transaction": {
        "from": "0xd759c0017a1f7fbdaee62a1b943b1ec90a02d0fe",
        "to": "0x1cfa3a209a85bc7e5731bf160e8e1826a6f7727f",
        "gas": "0x3b3d6",
        "value": "0x0",
        "input": "0x28797c5a00000000000000000000000000000000000000000000000000000000000000020000000000000000000000000000000000000000000000000000000000000060000000000000000000000000000000000000000000000000000000000076a700000000000000000000000000000000000000000000000000000000000000003d576173207468652062616c6c20636f6d706c6574656c79206f7574206f6620626f756e6473206265666f7265204d62617070652773206173736973743f000000",
        "nonce": "0xd",
        "chainId": "0x7a0"
      },
      "additionalContracts": [],
      "isFixedGasLimit": false
    },
    {
      "hash": "0x286da69d9c7608e067d1ab038df7a02547fb643f7c3500503441ea6dff97238f",
      "transactionType": "CALL",
      "contractName": null,
      "contractAddress": "0x1f9a7e49d0339a53e47857d0d032121764058ef7",
      "function": "createDispute(uint256,uint256,string,uint256)",
      "arguments": [
        "101",
        "1",
        "Messi 42\\' - Possible offside detection on run-up.",
        "7776000"
      ],
      "transaction": {
        "from": "0xd759c0017a1f7fbdaee62a1b943b1ec90a02d0fe",
        "to": "0x1f9a7e49d0339a53e47857d0d032121764058ef7",
        "gas": "0x47848",
        "value": "0x0",
        "input": "0x4552bad3000000000000000000000000000000000000000000000000000000000000006500000000000000000000000000000000000000000000000000000000000000010000000000000000000000000000000000000000000000000000000000000080000000000000000000000000000000000000000000000000000000000076a70000000000000000000000000000000000000000000000000000000000000000314d6573736920343227202d20506f737369626c65206f66667369646520646574656374696f6e206f6e2072756e2d75702e000000000000000000000000000000",
        "nonce": "0xe",
        "chainId": "0x7a0"
      },
      "additionalContracts": [],
      "isFixedGasLimit": false
    },
    {
      "hash": "0xf1579a241033745599d25e873a9d177573ee87d4a26f6846199d1fb0fb309b10",
      "transactionType": "CALL",
      "contractName": null,
      "contractAddress": "0x1f9a7e49d0339a53e47857d0d032121764058ef7",
      "function": "createDispute(uint256,uint256,string,uint256)",
      "arguments": [
        "102",
        "2",
        "Mbappe 68\\' - Touchline check before final cross.",
        "7776000"
      ],
      "transaction": {
        "from": "0xd759c0017a1f7fbdaee62a1b943b1ec90a02d0fe",
        "to": "0x1f9a7e49d0339a53e47857d0d032121764058ef7",
        "gas": "0x438a5",
        "value": "0x0",
        "input": "0x4552bad3000000000000000000000000000000000000000000000000000000000000006600000000000000000000000000000000000000000000000000000000000000020000000000000000000000000000000000000000000000000000000000000080000000000000000000000000000000000000000000000000000000000076a70000000000000000000000000000000000000000000000000000000000000000304d626170706520363827202d20546f7563686c696e6520636865636b206265666f72652066696e616c2063726f73732e00000000000000000000000000000000",
        "nonce": "0xf",
        "chainId": "0x7a0"
      },
      "additionalContracts": [],
      "isFixedGasLimit": false
    }
  ],
  "receipts": [
    {
      "type": "0x0",
      "status": "0x1",
      "cumulativeGasUsed": "0x3624a",
      "logs": [
        {
          "address": "0x1cfa3a209a85bc7e5731bf160e8e1826a6f7727f",
          "topics": [
            "0x3040bbc5c012df6c85e9f1cc10202ceda09051bc16d18aa369bf9ada2ba7716f",
            "0x0000000000000000000000000000000000000000000000000000000000000001"
          ],
          "data": "0x0000000000000000000000000000000000000000000000000000000000000040000000000000000000000000000000000000000000000000000000006a84555a000000000000000000000000000000000000000000000000000000000000003957696c6c207468652056415220636865636b2072756c65204d6573736927732034326e64206d696e75746520676f616c204f4646534944453f00000000000000",
          "blockHash": "0x780244ad35503d1dbce8cc54bccf3179b87259c805a0a2fd06783960daed2326",
          "blockNumber": "0x1d65105",
          "blockTimestamp": "0x6a0dae5a",
          "transactionHash": "0x286da69d9c7608e067d1ab038df7a02547fb643f7c3500503441ea6dff97238f",
          "transactionIndex": "0x1",
          "logIndex": "0x0",
          "removed": false
        }
      ],
      "logsBloom": "0x00000000000000000000000000000000100000000000000000000000000000000000000000000000000000000080000000000000000000000000000000040000000000000000000000000000000000000000000000040000000000000000000000000000000000000000000000000000000000000000000000000080000000000000000000000000000000000080000000000000000000000000400000000000000000000000000000000000000000000000000000000000000000000000000000000000000000000000000000000000200000000000000000000000000040000000000000000000000000000000000000000000000000000000000000000000",
      "transactionHash": "0x286da69d9c7608e067d1ab038df7a02547fb643f7c3500503441ea6dff97238f",
      "transactionIndex": "0x1",
      "blockHash": "0x780244ad35503d1dbce8cc54bccf3179b87259c805a0a2fd06783960daed2326",
      "blockNumber": "0x1d65105",
      "gasUsed": "0x2ae08",
      "effectiveGasPrice": "0x1312d01",
      "blobGasUsed": "0x7f",
      "from": "0xd759c0017a1f7fbdaee62a1b943b1ec90a02d0fe",
      "to": "0x1cfa3a209a85bc7e5731bf160e8e1826a6f7727f",
      "contractAddress": null
    },
    {
      "type": "0x0",
      "status": "0x1",
      "cumulativeGasUsed": "0x61082",
      "logs": [
        {
          "address": "0x1cfa3a209a85bc7e5731bf160e8e1826a6f7727f",
          "topics": [
            "0x3040bbc5c012df6c85e9f1cc10202ceda09051bc16d18aa369bf9ada2ba7716f",
            "0x0000000000000000000000000000000000000000000000000000000000000002"
          ],
          "data": "0x0000000000000000000000000000000000000000000000000000000000000040000000000000000000000000000000000000000000000000000000006a84555a000000000000000000000000000000000000000000000000000000000000003d576173207468652062616c6c20636f6d706c6574656c79206f7574206f6620626f756e6473206265666f7265204d62617070652773206173736973743f000000",
          "blockHash": "0x780244ad35503d1dbce8cc54bccf3179b87259c805a0a2fd06783960daed2326",
          "blockNumber": "0x1d65105",
          "blockTimestamp": "0x6a0dae5a",
          "transactionHash": "0xbe39bcd7fb18718f15231da3f6155d3b3079997c2110389467e1f58805389df2",
          "transactionIndex": "0x2",
          "logIndex": "0x1",
          "removed": false
        }
      ],
      "logsBloom": "0x04000000000000000000000000000000100000000000000000000000000000000000000000000000000000000080000000000000000000000000000000000000000000000000000000000000000000000000000000000000000000000000000000000000000000000000000000000000000000000000000000000080000000000000000000000000000000000080000000000000000000000000400000000000000000000000000000000100000000000000000000000000000000000000000000000000000000000000000000000000200000000000000000000000000000000000000000000000000000000000000000000000008000000000000000000000",
      "transactionHash": "0xbe39bcd7fb18718f15231da3f6155d3b3079997c2110389467e1f58805389df2",
      "transactionIndex": "0x2",
      "blockHash": "0x780244ad35503d1dbce8cc54bccf3179b87259c805a0a2fd06783960daed2326",
      "blockNumber": "0x1d65105",
      "gasUsed": "0x2ae38",
      "effectiveGasPrice": "0x1312d01",
      "blobGasUsed": "0x81",
      "from": "0xd759c0017a1f7fbdaee62a1b943b1ec90a02d0fe",
      "to": "0x1cfa3a209a85bc7e5731bf160e8e1826a6f7727f",
      "contractAddress": null
    },
    {
      "type": "0x0",
      "status": "0x1",
      "cumulativeGasUsed": "0x91eed",
      "logs": [
        {
          "address": "0x1f9a7e49d0339a53e47857d0d032121764058ef7",
          "topics": [
            "0x5c78ee02390d4ceef9c4b949ec3ca8edd70ef881f107ce9c8fcd58c88f709fb5",
            "0x0000000000000000000000000000000000000000000000000000000000000065"
          ],
          "data": "0x0000000000000000000000000000000000000000000000000000000000000040000000000000000000000000000000000000000000000000000000006a84555a00000000000000000000000000000000000000000000000000000000000000314d6573736920343227202d20506f737369626c65206f66667369646520646574656374696f6e206f6e2072756e2d75702e000000000000000000000000000000",
          "blockHash": "0x780244ad35503d1dbce8cc54bccf3179b87259c805a0a2fd06783960daed2326",
          "blockNumber": "0x1d65105",
          "blockTimestamp": "0x6a0dae5a",
          "transactionHash": "0x3843fbce9f5933bcdc50081bc393ade3e5ee72c3f897d0a66d8f8368aebf622e",
          "transactionIndex": "0x3",
          "logIndex": "0x2",
          "removed": false
        }
      ],
      "logsBloom": "0x02000000000000000000000000000000000000000000000000000000000000000000000004080000000000000000000000000000000000008000000000000000000000000000000000000000000002000000000000020000000000000000000000000000000000000400000000000000000000000000000000000000020000000000000000000000000000000000000000000000000000000000000000000000000000000000000000000000000000000000000000000000000000000000000000000000000000000000000000000000000000000000000000000000000000000000002000000000000000000000000000000000000000000000000000000000",
      "transactionHash": "0x3843fbce9f5933bcdc50081bc393ade3e5ee72c3f897d0a66d8f8368aebf622e",
      "transactionIndex": "0x3",
      "blockHash": "0x780244ad35503d1dbce8cc54bccf3179b87259c805a0a2fd06783960daed2326",
      "blockNumber": "0x1d65105",
      "gasUsed": "0x30e6b",
      "effectiveGasPrice": "0x1312d01",
      "blobGasUsed": "0x7c",
      "from": "0xd759c0017a1f7fbdaee62a1b943b1ec90a02d0fe",
      "to": "0x1f9a7e49d0339a53e47857d0d032121764058ef7",
      "contractAddress": null
    },
    {
      "type": "0x0",
      "status": "0x1",
      "cumulativeGasUsed": "0xc2d4c",
      "logs": [
        {
          "address": "0x1f9a7e49d0339a53e47857d0d032121764058ef7",
          "topics": [
            "0x5c78ee02390d4ceef9c4b949ec3ca8edd70ef881f107ce9c8fcd58c88f709fb5",
            "0x0000000000000000000000000000000000000000000000000000000000000066"
          ],
          "data": "0x0000000000000000000000000000000000000000000000000000000000000040000000000000000000000000000000000000000000000000000000006a84555a00000000000000000000000000000000000000000000000000000000000000304d626170706520363827202d20546f7563686c696e6520636865636b206265666f72652066696e616c2063726f73732e00000000000000000000000000000000",
          "blockHash": "0x780244ad35503d1dbce8cc54bccf3179b87259c805a0a2fd06783960daed2326",
          "blockNumber": "0x1d65105",
          "blockTimestamp": "0x6a0dae5a",
          "transactionHash": "0xf1579a241033745599d25e873a9d177573ee87d4a26f6846199d1fb0fb309b10",
          "transactionIndex": "0x4",
          "logIndex": "0x3",
          "removed": false
        }
      ],
      "logsBloom": "0x00000000000000000000000000000000000000000000000000000000000000000000000004080000000000000000000000000000000100000000000000000000000000000000000000000000000002000000000000020000000000000000000000000000000000000400000000000000000000000000000000000000000000000000000000000000000000000000000000000000000000000000000000000000000000000000000000000000000000000000000000000000000000000000000000000000000000000000000000000000000000000000000000000000000000000000002000000400000000000000000002000000000000000000000000000000",
      "transactionHash": "0xf1579a241033745599d25e873a9d177573ee87d4a26f6846199d1fb0fb309b10",
      "transactionIndex": "0x4",
      "blockHash": "0x780244ad35503d1dbce8cc54bccf3179b87259c805a0a2fd06783960daed2326",
      "blockNumber": "0x1d65105",
      "gasUsed": "0x30e5f",
      "effectiveGasPrice": "0x1312d01",
      "blobGasUsed": "0x7c",
      "from": "0xd759c0017a1f7fbdaee62a1b943b1ec90a02d0fe",
      "to": "0x1f9a7e49d0339a53e47857d0d032121764058ef7",
      "contractAddress": null
    }
  ],
  "libraries": [],
  "pending": [],
  "returns": {},
  "timestamp": 1779281499956,
  "chain": 1952,
  "commit": "73b007e"
}