{
  "transactions": [
    {
      "hash": "0xa3a560f7e5cc41afcf3eff11c0672bfc26310b420d3aea176a1e6112ea9ddce2",
      "transactionType": "CALL",
      "contractName": null,
      "contractAddress": "0x18a2d7c02e8f44dda3498dec63cb770da78f7a9e",
      "function": "createPool(uint256,string,uint256)",
      "arguments": [
        "1",
        "Will the VAR check rule Messi\\'s 42nd minute goal OFFSIDE?",
        "7776000"
      ],
      "transaction": {
        "from": "0xd759c0017a1f7fbdaee62a1b943b1ec90a02d0fe",
        "to": "0x18a2d7c02e8f44dda3498dec63cb770da78f7a9e",
        "gas": "0x3b394",
        "value": "0x0",
        "input": "0x28797c5a00000000000000000000000000000000000000000000000000000000000000010000000000000000000000000000000000000000000000000000000000000060000000000000000000000000000000000000000000000000000000000076a700000000000000000000000000000000000000000000000000000000000000003957696c6c207468652056415220636865636b2072756c65204d6573736927732034326e64206d696e75746520676f616c204f4646534944453f00000000000000",
        "nonce": "0x25",
        "chainId": "0x7a0"
      },
      "additionalContracts": [],
      "isFixedGasLimit": false
    },
    {
      "hash": "0x025ae510e60ad342649215b4d2e21db24b3968ac41138343f20e18e49c230a3d",
      "transactionType": "CALL",
      "contractName": null,
      "contractAddress": "0x18a2d7c02e8f44dda3498dec63cb770da78f7a9e",
      "function": "createPool(uint256,string,uint256)",
      "arguments": [
        "2",
        "Was the ball completely out of bounds before Mbappe\\'s assist?",
        "7776000"
      ],
      "transaction": {
        "from": "0xd759c0017a1f7fbdaee62a1b943b1ec90a02d0fe",
        "to": "0x18a2d7c02e8f44dda3498dec63cb770da78f7a9e",
        "gas": "0x3b3d6",
        "value": "0x0",
        "input": "0x28797c5a00000000000000000000000000000000000000000000000000000000000000020000000000000000000000000000000000000000000000000000000000000060000000000000000000000000000000000000000000000000000000000076a700000000000000000000000000000000000000000000000000000000000000003d576173207468652062616c6c20636f6d706c6574656c79206f7574206f6620626f756e6473206265666f7265204d62617070652773206173736973743f000000",
        "nonce": "0x26",
        "chainId": "0x7a0"
      },
      "additionalContracts": [],
      "isFixedGasLimit": false
    },
    {
      "hash": "0x8f6c98ca76f9e21f6ea26db6ccacb1ded7e6fb0f582c4a67667cdbef93cdd71f",
      "transactionType": "CALL",
      "contractName": null,
      "contractAddress": "0xa3eadc2ffed327f1e8f9a62ac4f100000aed4c7a",
      "function": "createDispute(uint256,uint256,string,uint256)",
      "arguments": [
        "101",
        "1",
        "Messi 42\\' - Possible offside detection on run-up.",
        "7776000"
      ],
      "transaction": {
        "from": "0xd759c0017a1f7fbdaee62a1b943b1ec90a02d0fe",
        "to": "0xa3eadc2ffed327f1e8f9a62ac4f100000aed4c7a",
        "gas": "0x47848",
        "value": "0x0",
        "input": "0x4552bad3000000000000000000000000000000000000000000000000000000000000006500000000000000000000000000000000000000000000000000000000000000010000000000000000000000000000000000000000000000000000000000000080000000000000000000000000000000000000000000000000000000000076a70000000000000000000000000000000000000000000000000000000000000000314d6573736920343227202d20506f737369626c65206f66667369646520646574656374696f6e206f6e2072756e2d75702e000000000000000000000000000000",
        "nonce": "0x27",
        "chainId": "0x7a0"
      },
      "additionalContracts": [],
      "isFixedGasLimit": false
    },
    {
      "hash": "0x6816e9f01643472e89b2afc6dd0d2cfcc948f0ef434b566c87294c0aa3a26c51",
      "transactionType": "CALL",
      "contractName": null,
      "contractAddress": "0xa3eadc2ffed327f1e8f9a62ac4f100000aed4c7a",
      "function": "createDispute(uint256,uint256,string,uint256)",
      "arguments": [
        "102",
        "2",
        "Mbappe 68\\' - Touchline check before final cross.",
        "7776000"
      ],
      "transaction": {
        "from": "0xd759c0017a1f7fbdaee62a1b943b1ec90a02d0fe",
        "to": "0xa3eadc2ffed327f1e8f9a62ac4f100000aed4c7a",
        "gas": "0x438a5",
        "value": "0x0",
        "input": "0x4552bad3000000000000000000000000000000000000000000000000000000000000006600000000000000000000000000000000000000000000000000000000000000020000000000000000000000000000000000000000000000000000000000000080000000000000000000000000000000000000000000000000000000000076a70000000000000000000000000000000000000000000000000000000000000000304d626170706520363827202d20546f7563686c696e6520636865636b206265666f72652066696e616c2063726f73732e00000000000000000000000000000000",
        "nonce": "0x28",
        "chainId": "0x7a0"
      },
      "additionalContracts": [],
      "isFixedGasLimit": false
    }
  ],
  "receipts": [
    {
      "status": "0x1",
      "cumulativeGasUsed": "0x36256",
      "logs": [
        {
          "address": "0x18a2d7c02e8f44dda3498dec63cb770da78f7a9e",
          "topics": [
            "0x3040bbc5c012df6c85e9f1cc10202ceda09051bc16d18aa369bf9ada2ba7716f",
            "0x0000000000000000000000000000000000000000000000000000000000000001"
          ],
          "data": "0x0000000000000000000000000000000000000000000000000000000000000040000000000000000000000000000000000000000000000000000000006a8acd9c000000000000000000000000000000000000000000000000000000000000003957696c6c207468652056415220636865636b2072756c65204d6573736927732034326e64206d696e75746520676f616c204f4646534944453f00000000000000",
          "blockHash": "0x50b9f60252038c99faeb6995b8b45eed751f80877d524bce56d36c43538c5405",
          "blockNumber": "0x1dcc947",
          "blockTimestamp": "0x6a14269c",
          "transactionHash": "0xa3a560f7e5cc41afcf3eff11c0672bfc26310b420d3aea176a1e6112ea9ddce2",
          "transactionIndex": "0x1",
          "logIndex": "0x0",
          "removed": false
        }
      ],
      "logsBloom": "0x00000000000000000000000000000000100000000000000000000000000000000000000000000000000000000000000000000000000000000000000000040000000000000800000000000000000000000000000000040000000000000000000000000000000000000000000000000000000000000000000000000000000000000000000000000000000000000080000000000000000000000000000000000000000000000000000000000000000000800000000000000000000000000400000000000000000000000000000000000000200000000000000000000000000040000000000000000000000000000000000000000000000000000000000000000000",
      "type": "0x2",
      "transactionHash": "0xa3a560f7e5cc41afcf3eff11c0672bfc26310b420d3aea176a1e6112ea9ddce2",
      "transactionIndex": "0x1",
      "blockHash": "0x50b9f60252038c99faeb6995b8b45eed751f80877d524bce56d36c43538c5405",
      "blockNumber": "0x1dcc947",
      "gasUsed": "0x2ae08",
      "effectiveGasPrice": "0x1312d01",
      "blobGasUsed": "0x82",
      "from": "0xd759c0017a1f7fbdaee62a1b943b1ec90a02d0fe",
      "to": "0x18a2d7c02e8f44dda3498dec63cb770da78f7a9e",
      "contractAddress": null,
      "daFootprintGasScalar": "0x1",
      "l1BaseFeeScalar": "0x0",
      "l1BlobBaseFee": "0x2069e046d",
      "l1BlobBaseFeeScalar": "0x0",
      "l1Fee": "0x0",
      "l1GasPrice": "0x4c3f521d",
      "l1GasUsed": "0x829"
    },
    {
      "status": "0x1",
      "cumulativeGasUsed": "0x36286",
      "logs": [
        {
          "address": "0x18a2d7c02e8f44dda3498dec63cb770da78f7a9e",
          "topics": [
            "0x3040bbc5c012df6c85e9f1cc10202ceda09051bc16d18aa369bf9ada2ba7716f",
            "0x0000000000000000000000000000000000000000000000000000000000000002"
          ],
          "data": "0x0000000000000000000000000000000000000000000000000000000000000040000000000000000000000000000000000000000000000000000000006a8acd9d000000000000000000000000000000000000000000000000000000000000003d576173207468652062616c6c20636f6d706c6574656c79206f7574206f6620626f756e6473206265666f7265204d62617070652773206173736973743f000000",
          "blockHash": "0x9ac870c9fd4682d38d566175a54ff90173a32c70637b533eeea40ffe069b0d40",
          "blockNumber": "0x1dcc948",
          "blockTimestamp": "0x6a14269d",
          "transactionHash": "0x025ae510e60ad342649215b4d2e21db24b3968ac41138343f20e18e49c230a3d",
          "transactionIndex": "0x1",
          "logIndex": "0x0",
          "removed": false
        }
      ],
      "logsBloom": "0x04000000000000000000000000000000100000000000000000000000000000000000000000000000000000000000000000000000000000000000000000000000000000000800000000000000000000000000000000000000000000000000000000000000000000000000000000000000000000000000000000000000000000000000000000000000000000000080000000000000000000000000000000000000000000000000000000000100000000800000000000000000000000000400000000000000000000000000000000000000200000000000000000000000000000000000000000000000000000000000000000000000008000000000000000000000",
      "type": "0x2",
      "transactionHash": "0x025ae510e60ad342649215b4d2e21db24b3968ac41138343f20e18e49c230a3d",
      "transactionIndex": "0x1",
      "blockHash": "0x9ac870c9fd4682d38d566175a54ff90173a32c70637b533eeea40ffe069b0d40",
      "blockNumber": "0x1dcc948",
      "gasUsed": "0x2ae38",
      "effectiveGasPrice": "0x1312d01",
      "blobGasUsed": "0x85",
      "from": "0xd759c0017a1f7fbdaee62a1b943b1ec90a02d0fe",
      "to": "0x18a2d7c02e8f44dda3498dec63cb770da78f7a9e",
      "contractAddress": null,
      "daFootprintGasScalar": "0x1",
      "l1BaseFeeScalar": "0x0",
      "l1BlobBaseFee": "0x2069e046d",
      "l1BlobBaseFeeScalar": "0x0",
      "l1Fee": "0x0",
      "l1GasPrice": "0x4c3f521d",
      "l1GasUsed": "0x851"
    },
    {
      "status": "0x1",
      "cumulativeGasUsed": "0x670f1",
      "logs": [
        {
          "address": "0xa3eadc2ffed327f1e8f9a62ac4f100000aed4c7a",
          "topics": [
            "0x5c78ee02390d4ceef9c4b949ec3ca8edd70ef881f107ce9c8fcd58c88f709fb5",
            "0x0000000000000000000000000000000000000000000000000000000000000065"
          ],
          "data": "0x0000000000000000000000000000000000000000000000000000000000000040000000000000000000000000000000000000000000000000000000006a8acd9d00000000000000000000000000000000000000000000000000000000000000314d6573736920343227202d20506f737369626c65206f66667369646520646574656374696f6e206f6e2072756e2d75702e000000000000000000000000000000",
          "blockHash": "0x9ac870c9fd4682d38d566175a54ff90173a32c70637b533eeea40ffe069b0d40",
          "blockNumber": "0x1dcc948",
          "blockTimestamp": "0x6a14269d",
          "transactionHash": "0x8f6c98ca76f9e21f6ea26db6ccacb1ded7e6fb0f582c4a67667cdbef93cdd71f",
          "transactionIndex": "0x2",
          "logIndex": "0x1",
          "removed": false
        }
      ],
      "logsBloom": "0x02000000000000000000400000000000020000000000000000000000000000000000000000080000000000000000000000000000000000008000000000000000000000000000000000000000000000000000000000000000000000000000000000000000000000000400000000000000000000000000000000000000020000000000000000000000000000000000000000000000000000000000000000000000000000000000000000000000000000000000000000000000000000000000000000000000000000000000000000000000000000000000000000000000000000000000002000000000001000000000000000000000000000000000000000000000",
      "type": "0x2",
      "transactionHash": "0x8f6c98ca76f9e21f6ea26db6ccacb1ded7e6fb0f582c4a67667cdbef93cdd71f",
      "transactionIndex": "0x2",
      "blockHash": "0x9ac870c9fd4682d38d566175a54ff90173a32c70637b533eeea40ffe069b0d40",
      "blockNumber": "0x1dcc948",
      "gasUsed": "0x30e6b",
      "effectiveGasPrice": "0x1312d01",
      "blobGasUsed": "0x80",
      "from": "0xd759c0017a1f7fbdaee62a1b943b1ec90a02d0fe",
      "to": "0xa3eadc2ffed327f1e8f9a62ac4f100000aed4c7a",
      "contractAddress": null,
      "daFootprintGasScalar": "0x1",
      "l1BaseFeeScalar": "0x0",
      "l1BlobBaseFee": "0x2069e046d",
      "l1BlobBaseFeeScalar": "0x0",
      "l1Fee": "0x0",
      "l1GasPrice": "0x4c3f521d",
      "l1GasUsed": "0x800"
    },
    {
      "status": "0x1",
      "cumulativeGasUsed": "0x97f50",
      "logs": [
        {
          "address": "0xa3eadc2ffed327f1e8f9a62ac4f100000aed4c7a",
          "topics": [
            "0x5c78ee02390d4ceef9c4b949ec3ca8edd70ef881f107ce9c8fcd58c88f709fb5",
            "0x0000000000000000000000000000000000000000000000000000000000000066"
          ],
          "data": "0x0000000000000000000000000000000000000000000000000000000000000040000000000000000000000000000000000000000000000000000000006a8acd9d00000000000000000000000000000000000000000000000000000000000000304d626170706520363827202d20546f7563686c696e6520636865636b206265666f72652066696e616c2063726f73732e00000000000000000000000000000000",
          "blockHash": "0x9ac870c9fd4682d38d566175a54ff90173a32c70637b533eeea40ffe069b0d40",
          "blockNumber": "0x1dcc948",
          "blockTimestamp": "0x6a14269d",
          "transactionHash": "0x6816e9f01643472e89b2afc6dd0d2cfcc948f0ef434b566c87294c0aa3a26c51",
          "transactionIndex": "0x3",
          "logIndex": "0x2",
          "removed": false
        }
      ],
      "logsBloom": "0x00000000000000000000400000000000020000000000000000000000000000000000000000080000000000000000000000000000000100000000000000000000000000000000000000000000000000000000000000000000000000000000000000000000000000000400000000000000000000000000000000000000000000000000000000000000000000000000000000000000000000000000000000000000000000000000000000000000000000000000000000000000000000000000000000000000000000000000000000000000000000000000000000000000000000000000002000000400001000000000000002000000000000000000000000000000",
      "type": "0x2",
      "transactionHash": "0x6816e9f01643472e89b2afc6dd0d2cfcc948f0ef434b566c87294c0aa3a26c51",
      "transactionIndex": "0x3",
      "blockHash": "0x9ac870c9fd4682d38d566175a54ff90173a32c70637b533eeea40ffe069b0d40",
      "blockNumber": "0x1dcc948",
      "gasUsed": "0x30e5f",
      "effectiveGasPrice": "0x1312d01",
      "blobGasUsed": "0x80",
      "from": "0xd759c0017a1f7fbdaee62a1b943b1ec90a02d0fe",
      "to": "0xa3eadc2ffed327f1e8f9a62ac4f100000aed4c7a",
      "contractAddress": null,
      "daFootprintGasScalar": "0x1",
      "l1BaseFeeScalar": "0x0",
      "l1BlobBaseFee": "0x2069e046d",
      "l1BlobBaseFeeScalar": "0x0",
      "l1Fee": "0x0",
      "l1GasPrice": "0x4c3f521d",
      "l1GasUsed": "0x800"
    }
  ],
  "libraries": [],
  "pending": [],
  "returns": {},
  "timestamp": 1779705500,
  "chain": 1952,
  "commit": "f41e4af"
}